{
  "contractName": "TimeStamper",
  "abi": [
    {
      "constant": false,
      "inputs": [
        {
          "name": "hash",
          "type": "string"
        }
      ],
      "name": "timestamp",
      "outputs": [],
      "payable": false,
      "stateMutability": "nonpayable",
      "type": "function",
      "signature": "0x09f13b19"
    },
    {
      "constant": true,
      "inputs": [
        {
          "name": "hash",
          "type": "string"
        }
      ],
      "name": "verify",
      "outputs": [
        {
          "name": "",
          "type": "uint256"
        }
      ],
      "payable": false,
      "stateMutability": "view",
      "type": "function",
      "signature": "0xbb9c6c3e"
    }
  ],
  "bytecode": "0x608060405234801561001057600080fd5b50610381806100206000396000f3fe60806040526004361061004c576000357c0100000000000000000000000000000000000000000000000000000000900463ffffffff16806309f13b1914610051578063bb9c6c3e14610119575b600080fd5b34801561005d57600080fd5b506101176004803603602081101561007457600080fd5b810190808035906020019064010000000081111561009157600080fd5b8201836020820111156100a357600080fd5b803590602001918460018302840111640100000000831117156100c557600080fd5b91908080601f016020809104026020016040519081016040528093929190818152602001838380828437600081840152601f19601f8201169050808301925050505050505091929192905050506101f5565b005b34801561012557600080fd5b506101df6004803603602081101561013c57600080fd5b810190808035906020019064010000000081111561015957600080fd5b82018360208201111561016b57600080fd5b8035906020019184600183028401116401000000008311171561018d57600080fd5b91908080601f016020809104026020016040519081016040528093929190818152602001838380828437600081840152601f19601f8201169050808301925050505050505091929192905050506102a4565b6040518082815260200191505060405180910390f35b426000803373ffffffffffffffffffffffffffffffffffffffff1673ffffffffffffffffffffffffffffffffffffffff168152602001908152602001600020826040518082805190602001908083835b60208310151561026a5780518252602082019150602081019050602083039250610245565b6001836020036101000a03801982511681845116808217855250505050505090500191505090815260200160405180910390208190555050565b60008060003373ffffffffffffffffffffffffffffffffffffffff1673ffffffffffffffffffffffffffffffffffffffff168152602001908152602001600020826040518082805190602001908083835b60208310151561031a57805182526020820191506020810190506020830392506102f5565b6001836020036101000a038019825116818451168082178552505050505050905001915050908152602001604051809103902054905091905056fea165627a7a72305820bda46f4bd80d9387b3dcb12a9774caeccc5582ded674a69a15dedb87a9c151000029",
  "source": "pragma solidity ^0.5.0;\n\ncontract TimeStamper{\n    \n    mapping (address => mapping(string => uint)) timestamps;\n    \n    function timestamp(string memory hash) public{\n        timestamps[msg.sender][hash] = block.timestamp;\n    }\n    \n    function verify(string memory hash) public view returns(uint){\n        return timestamps[msg.sender][hash];\n    }\n    \n}",
  "sourcePath": "/Users/simonbachmann/Programming/timestamp-dapp/contracts/TimeStamper.sol",
  "compiler": {
    "name": "solc",
    "version": "0.5.0+commit.1d4f565a.Emscripten.clang"
  },
  "schemaVersion": "3.0.3",
  "updatedAt": "2019-04-27T15:00:05.846Z",
  "devdoc": {
    "methods": {}
  },
  "userdoc": {
    "methods": {}
  }
}